{
  "_format": "hh-sol-artifact-1",
  "contractName": "NFTMarketplace",
  "sourceName": "contracts/NFTMarketplace.sol",
  "abi": [
    {
      "inputs": [],
      "stateMutability": "nonpayable",
      "type": "constructor"
    },
    {
      "inputs": [
        {
          "internalType": "address",
          "name": "sender",
          "type": "address"
        },
        {
          "internalType": "uint256",
          "name": "tokenId",
          "type": "uint256"
        },
        {
          "internalType": "address",
          "name": "owner",
          "type": "address"
        }
      ],
      "name": "ERC721IncorrectOwner",
      "type": "error"
    },
    {
      "inputs": [
        {
          "internalType": "address",
          "name": "operator",
          "type": "address"
        },
        {
          "internalType": "uint256",
          "name": "tokenId",
          "type": "uint256"
        }
      ],
      "name": "ERC721InsufficientApproval",
      "type": "error"
    },
    {
      "inputs": [
        {
          "internalType": "address",
          "name": "approver",
          "type": "address"
        }
      ],
      "name": "ERC721InvalidApprover",
      "type": "error"
    },
    {
      "inputs": [
        {
          "internalType": "address",
          "name": "operator",
          "type": "address"
        }
      ],
      "name": "ERC721InvalidOperator",
      "type": "error"
    },
    {
      "inputs": [
        {
          "internalType": "address",
          "name": "owner",
          "type": "address"
        }
      ],
      "name": "ERC721InvalidOwner",
      "type": "error"
    },
    {
      "inputs": [
        {
          "internalType": "address",
          "name": "receiver",
          "type": "address"
        }
      ],
      "name": "ERC721InvalidReceiver",
      "type": "error"
    },
    {
      "inputs": [
        {
          "internalType": "address",
          "name": "sender",
          "type": "address"
        }
      ],
      "name": "ERC721InvalidSender",
      "type": "error"
    },
    {
      "inputs": [
        {
          "internalType": "uint256",
          "name": "tokenId",
          "type": "uint256"
        }
      ],
      "name": "ERC721NonexistentToken",
      "type": "error"
    },
    {
      "inputs": [],
      "name": "ReentrancyGuardReentrantCall",
      "type": "error"
    },
    {
      "anonymous": false,
      "inputs": [
        {
          "indexed": true,
          "internalType": "address",
          "name": "owner",
          "type": "address"
        },
        {
          "indexed": true,
          "internalType": "address",
          "name": "approved",
          "type": "address"
        },
        {
          "indexed": true,
          "internalType": "uint256",
          "name": "tokenId",
          "type": "uint256"
        }
      ],
      "name": "Approval",
      "type": "event"
    },
    {
      "anonymous": false,
      "inputs": [
        {
          "indexed": true,
          "internalType": "address",
          "name": "owner",
          "type": "address"
        },
        {
          "indexed": true,
          "internalType": "address",
          "name": "operator",
          "type": "address"
        },
        {
          "indexed": false,
          "internalType": "bool",
          "name": "approved",
          "type": "bool"
        }
      ],
      "name": "ApprovalForAll",
      "type": "event"
    },
    {
      "anonymous": false,
      "inputs": [
        {
          "indexed": false,
          "internalType": "uint256",
          "name": "_fromTokenId",
          "type": "uint256"
        },
        {
          "indexed": false,
          "internalType": "uint256",
          "name": "_toTokenId",
          "type": "uint256"
        }
      ],
      "name": "BatchMetadataUpdate",
      "type": "event"
    },
    {
      "anonymous": false,
      "inputs": [
        {
          "indexed": false,
          "internalType": "uint256",
          "name": "_tokenId",
          "type": "uint256"
        }
      ],
      "name": "MetadataUpdate",
      "type": "event"
    },
    {
      "anonymous": false,
      "inputs": [
        {
          "indexed": true,
          "internalType": "uint256",
          "name": "tokenId",
          "type": "uint256"
        },
        {
          "indexed": false,
          "internalType": "address",
          "name": "creator",
          "type": "address"
        },
        {
          "indexed": false,
          "internalType": "address",
          "name": "owner",
          "type": "address"
        },
        {
          "indexed": false,
          "internalType": "uint256",
          "name": "price",
          "type": "uint256"
        },
        {
          "indexed": false,
          "internalType": "bool",
          "name": "currentlyListed",
          "type": "bool"
        }
      ],
      "name": "TokenListedSuccess",
      "type": "event"
    },
    {
      "anonymous": false,
      "inputs": [
        {
          "indexed": true,
          "internalType": "uint256",
          "name": "tokenId",
          "type": "uint256"
        },
        {
          "indexed": false,
          "internalType": "bool",
          "name": "newListingStatus",
          "type": "bool"
        },
        {
          "indexed": false,
          "internalType": "address",
          "name": "updatedBy",
          "type": "address"
        },
        {
          "indexed": false,
          "internalType": "uint256",
          "name": "timestamp",
          "type": "uint256"
        }
      ],
      "name": "TokenListingUpdated",
      "type": "event"
    },
    {
      "anonymous": false,
      "inputs": [
        {
          "indexed": true,
          "internalType": "uint256",
          "name": "tokenId",
          "type": "uint256"
        },
        {
          "indexed": false,
          "internalType": "uint256",
          "name": "oldPrice",
          "type": "uint256"
        },
        {
          "indexed": false,
          "internalType": "uint256",
          "name": "newPrice",
          "type": "uint256"
        },
        {
          "indexed": false,
          "internalType": "address",
          "name": "updatedBy",
          "type": "address"
        },
        {
          "indexed": false,
          "internalType": "uint256",
          "name": "timestamp",
          "type": "uint256"
        }
      ],
      "name": "TokenPriceUpdated",
      "type": "event"
    },
    {
      "anonymous": false,
      "inputs": [
        {
          "indexed": true,
          "internalType": "uint256",
          "name": "tokenId",
          "type": "uint256"
        },
        {
          "indexed": false,
          "internalType": "address",
          "name": "seller",
          "type": "address"
        },
        {
          "indexed": false,
          "internalType": "address",
          "name": "buyer",
          "type": "address"
        },
        {
          "indexed": false,
          "internalType": "uint256",
          "name": "price",
          "type": "uint256"
        },
        {
          "indexed": false,
          "internalType": "uint256",
          "name": "timestamp",
          "type": "uint256"
        }
      ],
      "name": "TokenSold",
      "type": "event"
    },
    {
      "anonymous": false,
      "inputs": [
        {
          "indexed": true,
          "internalType": "address",
          "name": "from",
          "type": "address"
        },
        {
          "indexed": true,
          "internalType": "address",
          "name": "to",
          "type": "address"
        },
        {
          "indexed": true,
          "internalType": "uint256",
          "name": "tokenId",
          "type": "uint256"
        }
      ],
      "name": "Transfer",
      "type": "event"
    },
    {
      "anonymous": false,
      "inputs": [
        {
          "indexed": true,
          "internalType": "address",
          "name": "recipient",
          "type": "address"
        },
        {
          "indexed": false,
          "internalType": "uint256",
          "name": "amount",
          "type": "uint256"
        },
        {
          "indexed": false,
          "internalType": "uint256",
          "name": "timestamp",
          "type": "uint256"
        }
      ],
      "name": "WithdrawalComplete",
      "type": "event"
    },
    {
      "inputs": [
        {
          "internalType": "address",
          "name": "to",
          "type": "address"
        },
        {
          "internalType": "uint256",
          "name": "tokenId",
          "type": "uint256"
        }
      ],
      "name": "approve",
      "outputs": [],
      "stateMutability": "nonpayable",
      "type": "function"
    },
    {
      "inputs": [
        {
          "internalType": "address",
          "name": "owner",
          "type": "address"
        }
      ],
      "name": "balanceOf",
      "outputs": [
        {
          "internalType": "uint256",
          "name": "",
          "type": "uint256"
        }
      ],
      "stateMutability": "view",
      "type": "function"
    },
    {
      "inputs": [
        {
          "components": [
            {
              "internalType": "address",
              "name": "owner",
              "type": "address"
            },
            {
              "internalType": "string",
              "name": "tokenURI",
              "type": "string"
            },
            {
              "internalType": "uint256",
              "name": "price",
              "type": "uint256"
            },
            {
              "internalType": "bool",
              "name": "isListed",
              "type": "bool"
            },
            {
              "internalType": "uint256",
              "name": "tokenID",
              "type": "uint256"
            }
          ],
          "internalType": "struct NFTMarketplace.InitialNFTData[]",
          "name": "nfts",
          "type": "tuple[]"
        }
      ],
      "name": "bulkInitializeNFTs",
      "outputs": [],
      "stateMutability": "nonpayable",
      "type": "function"
    },
    {
      "inputs": [
        {
          "internalType": "string",
          "name": "tokenURI",
          "type": "string"
        },
        {
          "internalType": "uint256",
          "name": "price",
          "type": "uint256"
        },
        {
          "internalType": "bool",
          "name": "currentlyListed",
          "type": "bool"
        }
      ],
      "name": "createToken",
      "outputs": [
        {
          "internalType": "uint256",
          "name": "",
          "type": "uint256"
        }
      ],
      "stateMutability": "payable",
      "type": "function"
    },
    {
      "inputs": [
        {
          "internalType": "uint256",
          "name": "tokenId",
          "type": "uint256"
        }
      ],
      "name": "executeSale",
      "outputs": [],
      "stateMutability": "payable",
      "type": "function"
    },
    {
      "inputs": [],
      "name": "getAllNFTs",
      "outputs": [
        {
          "internalType": "uint256[]",
          "name": "tokenIds",
          "type": "uint256[]"
        },
        {
          "internalType": "string[]",
          "name": "tokenURIs",
          "type": "string[]"
        },
        {
          "internalType": "address[]",
          "name": "creators",
          "type": "address[]"
        },
        {
          "internalType": "address[]",
          "name": "owners",
          "type": "address[]"
        },
        {
          "internalType": "uint256[]",
          "name": "prices",
          "type": "uint256[]"
        },
        {
          "internalType": "bool[]",
          "name": "currentlyListeds",
          "type": "bool[]"
        }
      ],
      "stateMutability": "view",
      "type": "function"
    },
    {
      "inputs": [
        {
          "internalType": "uint256",
          "name": "tokenId",
          "type": "uint256"
        }
      ],
      "name": "getApproved",
      "outputs": [
        {
          "internalType": "address",
          "name": "",
          "type": "address"
        }
      ],
      "stateMutability": "view",
      "type": "function"
    },
    {
      "inputs": [],
      "name": "getCurrentToken",
      "outputs": [
        {
          "internalType": "uint256",
          "name": "",
          "type": "uint256"
        }
      ],
      "stateMutability": "view",
      "type": "function"
    },
    {
      "inputs": [],
      "name": "getLatestIdToListedToken",
      "outputs": [
        {
          "internalType": "uint256",
          "name": "tokenId",
          "type": "uint256"
        },
        {
          "internalType": "address",
          "name": "tokenOwner",
          "type": "address"
        },
        {
          "internalType": "address",
          "name": "tokenSeller",
          "type": "address"
        },
        {
          "internalType": "uint256",
          "name": "price",
          "type": "uint256"
        },
        {
          "internalType": "bool",
          "name": "currentlyListed",
          "type": "bool"
        }
      ],
      "stateMutability": "view",
      "type": "function"
    },
    {
      "inputs": [],
      "name": "getListPrice",
      "outputs": [
        {
          "internalType": "uint256",
          "name": "",
          "type": "uint256"
        }
      ],
      "stateMutability": "view",
      "type": "function"
    },
    {
      "inputs": [
        {
          "internalType": "uint256",
          "name": "tokenId",
          "type": "uint256"
        }
      ],
      "name": "getListedTokenForId",
      "outputs": [
        {
          "internalType": "uint256",
          "name": "tokenId_",
          "type": "uint256"
        },
        {
          "internalType": "address",
          "name": "creator_",
          "type": "address"
        },
        {
          "internalType": "address",
          "name": "owner_",
          "type": "address"
        },
        {
          "internalType": "uint256",
          "name": "price_",
          "type": "uint256"
        },
        {
          "internalType": "bool",
          "name": "currentlyListed_",
          "type": "bool"
        }
      ],
      "stateMutability": "view",
      "type": "function"
    },
    {
      "inputs": [],
      "name": "getMyNFTs",
      "outputs": [
        {
          "internalType": "uint256[]",
          "name": "tokenIds",
          "type": "uint256[]"
        },
        {
          "internalType": "address[]",
          "name": "creators",
          "type": "address[]"
        },
        {
          "internalType": "address[]",
          "name": "owners",
          "type": "address[]"
        },
        {
          "internalType": "uint256[]",
          "name": "prices",
          "type": "uint256[]"
        },
        {
          "internalType": "bool[]",
          "name": "currentlyListeds",
          "type": "bool[]"
        }
      ],
      "stateMutability": "view",
      "type": "function"
    },
    {
      "inputs": [
        {
          "internalType": "uint256",
          "name": "tokenId",
          "type": "uint256"
        }
      ],
      "name": "getTokenPriceHistory",
      "outputs": [
        {
          "components": [
            {
              "internalType": "uint256",
              "name": "price",
              "type": "uint256"
            },
            {
              "internalType": "uint256",
              "name": "timestamp",
              "type": "uint256"
            },
            {
              "internalType": "address",
              "name": "setter",
              "type": "address"
            }
          ],
          "internalType": "struct NFTMarketplace.PriceHistory[]",
          "name": "",
          "type": "tuple[]"
        }
      ],
      "stateMutability": "view",
      "type": "function"
    },
    {
      "inputs": [
        {
          "internalType": "address",
          "name": "owner",
          "type": "address"
        },
        {
          "internalType": "address",
          "name": "operator",
          "type": "address"
        }
      ],
      "name": "isApprovedForAll",
      "outputs": [
        {
          "internalType": "bool",
          "name": "",
          "type": "bool"
        }
      ],
      "stateMutability": "view",
      "type": "function"
    },
    {
      "inputs": [],
      "name": "name",
      "outputs": [
        {
          "internalType": "string",
          "name": "",
          "type": "string"
        }
      ],
      "stateMutability": "view",
      "type": "function"
    },
    {
      "inputs": [
        {
          "internalType": "uint256",
          "name": "tokenId",
          "type": "uint256"
        }
      ],
      "name": "ownerOf",
      "outputs": [
        {
          "internalType": "address",
          "name": "",
          "type": "address"
        }
      ],
      "stateMutability": "view",
      "type": "function"
    },
    {
      "inputs": [
        {
          "internalType": "address",
          "name": "from",
          "type": "address"
        },
        {
          "internalType": "address",
          "name": "to",
          "type": "address"
        },
        {
          "internalType": "uint256",
          "name": "tokenId",
          "type": "uint256"
        }
      ],
      "name": "safeTransferFrom",
      "outputs": [],
      "stateMutability": "nonpayable",
      "type": "function"
    },
    {
      "inputs": [
        {
          "internalType": "address",
          "name": "from",
          "type": "address"
        },
        {
          "internalType": "address",
          "name": "to",
          "type": "address"
        },
        {
          "internalType": "uint256",
          "name": "tokenId",
          "type": "uint256"
        },
        {
          "internalType": "bytes",
          "name": "data",
          "type": "bytes"
        }
      ],
      "name": "safeTransferFrom",
      "outputs": [],
      "stateMutability": "nonpayable",
      "type": "function"
    },
    {
      "inputs": [
        {
          "internalType": "address",
          "name": "operator",
          "type": "address"
        },
        {
          "internalType": "bool",
          "name": "approved",
          "type": "bool"
        }
      ],
      "name": "setApprovalForAll",
      "outputs": [],
      "stateMutability": "nonpayable",
      "type": "function"
    },
    {
      "inputs": [
        {
          "internalType": "bytes4",
          "name": "interfaceId",
          "type": "bytes4"
        }
      ],
      "name": "supportsInterface",
      "outputs": [
        {
          "internalType": "bool",
          "name": "",
          "type": "bool"
        }
      ],
      "stateMutability": "view",
      "type": "function"
    },
    {
      "inputs": [],
      "name": "symbol",
      "outputs": [
        {
          "internalType": "string",
          "name": "",
          "type": "string"
        }
      ],
      "stateMutability": "view",
      "type": "function"
    },
    {
      "inputs": [
        {
          "internalType": "uint256",
          "name": "tokenId",
          "type": "uint256"
        }
      ],
      "name": "tokenURI",
      "outputs": [
        {
          "internalType": "string",
          "name": "",
          "type": "string"
        }
      ],
      "stateMutability": "view",
      "type": "function"
    },
    {
      "inputs": [
        {
          "internalType": "address",
          "name": "from",
          "type": "address"
        },
        {
          "internalType": "address",
          "name": "to",
          "type": "address"
        },
        {
          "internalType": "uint256",
          "name": "tokenId",
          "type": "uint256"
        }
      ],
      "name": "transferFrom",
      "outputs": [],
      "stateMutability": "nonpayable",
      "type": "function"
    },
    {
      "inputs": [
        {
          "internalType": "uint256",
          "name": "newPrice",
          "type": "uint256"
        }
      ],
      "name": "updateListPrice",
      "outputs": [],
      "stateMutability": "nonpayable",
      "type": "function"
    },
    {
      "inputs": [
        {
          "internalType": "uint256",
          "name": "tokenId",
          "type": "uint256"
        },
        {
          "internalType": "bool",
          "name": "newListingStatus",
          "type": "bool"
        }
      ],
      "name": "updateTokenListing",
      "outputs": [],
      "stateMutability": "nonpayable",
      "type": "function"
    },
    {
      "inputs": [
        {
          "internalType": "uint256",
          "name": "tokenId",
          "type": "uint256"
        },
        {
          "internalType": "uint256",
          "name": "newPrice",
          "type": "uint256"
        }
      ],
      "name": "updateTokenPrice",
      "outputs": [],
      "stateMutability": "nonpayable",
      "type": "function"
    },
    {
      "inputs": [],
      "name": "withdraw",
      "outputs": [],
      "stateMutability": "nonpayable",
      "type": "function"
    }
  ],
  "bytecode": "0x60806040526000600855662386f26fc10000600a553480156200002157600080fd5b506040518060400160405280600e81526020017f4e46544d61726b6574706c6163650000000000000000000000000000000000008152506040518060400160405280600681526020017f4e4654696679000000000000000000000000000000000000000000000000000081525081600090816200009f91906200037d565b508060019081620000b191906200037d565b505050600160078190555033600960006101000a81548173ffffffffffffffffffffffffffffffffffffffff021916908373ffffffffffffffffffffffffffffffffffffffff16021790555062000464565b600081519050919050565b7f4e487b7100000000000000000000000000000000000000000000000000000000600052604160045260246000fd5b7f4e487b7100000000000000000000000000000000000000000000000000000000600052602260045260246000fd5b600060028204905060018216806200018557607f821691505b6020821081036200019b576200019a6200013d565b5b50919050565b60008190508160005260206000209050919050565b60006020601f8301049050919050565b600082821b905092915050565b600060088302620002057fffffffffffffffffffffffffffffffffffffffffffffffffffffffffffffffff82620001c6565b620002118683620001c6565b95508019841693508086168417925050509392505050565b6000819050919050565b6000819050919050565b60006200025e62000258620002528462000229565b62000233565b62000229565b9050919050565b6000819050919050565b6200027a836200023d565b62000292620002898262000265565b848454620001d3565b825550505050565b600090565b620002a96200029a565b620002b68184846200026f565b505050565b5b81811015620002de57620002d26000826200029f565b600181019050620002bc565b5050565b601f8211156200032d57620002f781620001a1565b6200030284620001b6565b8101602085101562000312578190505b6200032a6200032185620001b6565b830182620002bb565b50505b505050565b600082821c905092915050565b6000620003526000198460080262000332565b1980831691505092915050565b60006200036d83836200033f565b9150826002028217905092915050565b620003888262000103565b67ffffffffffffffff811115620003a457620003a36200010e565b5b620003b082546200016c565b620003bd828285620002e2565b600060209050601f831160018114620003f55760008415620003e0578287015190505b620003ec85826200035f565b8655506200045c565b601f1984166200040586620001a1565b60005b828110156200042f5784890151825560018201915060208501945060208101905062000408565b868310156200044f57848901516200044b601f8916826200033f565b8355505b6001600288020188555050505b505050505050565b61584c80620004746000396000f3fe60806040526004361061019c5760003560e01c80638e264590116100ec578063c87b56dd1161008a578063e0391b0911610064578063e0391b09146105d3578063e985e9c514610603578063ef2d174614610640578063fe97b82e1461066b5761019c565b8063c87b56dd1461053e578063d1a88ae51461057b578063d3f6a856146105aa5761019c565b8063a22cb465116100c6578063a22cb46514610486578063a88a04c5146104af578063b88d4fde146104ec578063c322579c146105155761019c565b80638e264590146103fe57806395d89b411461043f5780639b1225c41461046a5761019c565b806342842e0e1161015957806368f1945f1161013357806368f1945f1461034457806370a082311461036f578063757eb815146103ac578063897925f5146103d55761019c565b806342842e0e146102af578063629cb2e4146102d85780636352211e146103075761019c565b806301ffc9a7146101a157806306fdde03146101de578063081812fc14610209578063095ea7b31461024657806323b872dd1461026f5780633ccfd60b14610298575b600080fd5b3480156101ad57600080fd5b506101c860048036038101906101c39190613ccf565b61069b565b6040516101d59190613d17565b60405180910390f35b3480156101ea57600080fd5b506101f36106fc565b6040516102009190613dc2565b60405180910390f35b34801561021557600080fd5b50610230600480360381019061022b9190613e1a565b61078e565b60405161023d9190613e88565b60405180910390f35b34801561025257600080fd5b5061026d60048036038101906102689190613ecf565b6107aa565b005b34801561027b57600080fd5b5061029660048036038101906102919190613f0f565b6107c0565b005b3480156102a457600080fd5b506102ad6108c2565b005b3480156102bb57600080fd5b506102d660048036038101906102d19190613f0f565b610a28565b005b3480156102e457600080fd5b506102ed610a48565b6040516102fe95949392919061419c565b60405180910390f35b34801561031357600080fd5b5061032e60048036038101906103299190613e1a565b610e71565b60405161033b9190613e88565b60405180910390f35b34801561035057600080fd5b50610359610e83565b6040516103669190614221565b60405180910390f35b34801561037b57600080fd5b506103966004803603810190610391919061423c565b610e8d565b6040516103a39190614221565b60405180910390f35b3480156103b857600080fd5b506103d360048036038101906103ce9190614295565b610f47565b005b3480156103e157600080fd5b506103fc60048036038101906103f791906142d5565b61105f565b005b34801561040a57600080fd5b5061042560048036038101906104209190613e1a565b611276565b604051610436959493929190614315565b60405180910390f35b34801561044b57600080fd5b5061045461130e565b6040516104619190613dc2565b60405180910390f35b610484600480360381019061047f9190613e1a565b6113a0565b005b34801561049257600080fd5b506104ad60048036038101906104a89190614368565b6118e4565b005b3480156104bb57600080fd5b506104d660048036038101906104d19190613e1a565b6118fa565b6040516104e39190614499565b60405180910390f35b3480156104f857600080fd5b50610513600480360381019061050e91906145f0565b611a44565b005b34801561052157600080fd5b5061053c60048036038101906105379190613e1a565b611a69565b005b34801561054a57600080fd5b5061056560048036038101906105609190613e1a565b611b03565b6040516105729190613dc2565b60405180910390f35b34801561058757600080fd5b50610590611c16565b6040516105a1959493929190614315565b60405180910390f35b3480156105b657600080fd5b506105d160048036038101906105cc91906146d3565b611cc0565b005b3480156105df57600080fd5b506105e86122e1565b6040516105fa9695949392919061482c565b60405180910390f35b34801561060f57600080fd5b5061062a600480360381019061062591906148b7565b612705565b6040516106379190613d17565b60405180910390f35b34801561064c57600080fd5b50610655612799565b6040516106629190614221565b60405180910390f35b61068560048036038101906106809190614998565b6127af565b6040516106929190614221565b60405180910390f35b6000634906490660e01b7bffffffffffffffffffffffffffffffffffffffffffffffffffffffff1916827bffffffffffffffffffffffffffffffffffffffffffffffffffffffff191614806106f557506106f4826127fb565b5b9050919050565b60606000805461070b90614a36565b80601f016020809104026020016040519081016040528092919081815260200182805461073790614a36565b80156107845780601f1061075957610100808354040283529160200191610784565b820191906000526020600020905b81548152906001019060200180831161076757829003601f168201915b5050505050905090565b6000610799826128dd565b506107a382612965565b9050919050565b6107bc82826107b76129a2565b6129aa565b5050565b600073ffffffffffffffffffffffffffffffffffffffff168273ffffffffffffffffffffffffffffffffffffffff16036108325760006040517f64a0ae920000000000000000000000000000000000000000000000000000000081526004016108299190613e88565b60405180910390fd5b600061084683836108416129a2565b6129bc565b90508373ffffffffffffffffffffffffffffffffffffffff168173ffffffffffffffffffffffffffffffffffffffff16146108bc578382826040517f64283d7b0000000000000000000000000000000000000000000000000000000081526004016108b393929190614a67565b60405180910390fd5b50505050565b6000600c60003373ffffffffffffffffffffffffffffffffffffffff1673ffffffffffffffffffffffffffffffffffffffff16815260200190815260200160002054905060008111610949576040517f08c379a000000000000000000000000000000000000000000000000000000000815260040161094090614aea565b60405180910390fd5b6000600c60003373ffffffffffffffffffffffffffffffffffffffff1673ffffffffffffffffffffffffffffffffffffffff168152602001908152602001600020819055503373ffffffffffffffffffffffffffffffffffffffff166108fc829081150290604051600060405180830381858888f193505050501580156109d4573d6000803e3d6000fd5b503373ffffffffffffffffffffffffffffffffffffffff167fcbc30e520b47f25934e3caa0d827b8cb3e61863b7762ea111ec852fd5c81d8f68242604051610a1d929190614b0a565b60405180910390a250565b610a4383838360405180602001604052806000815250611a44565b505050565b6060806060806060600060085490506000805b82811015610aee573373ffffffffffffffffffffffffffffffffffffffff16600b600083815260200190815260200160002060020160009054906101000a900473ffffffffffffffffffffffffffffffffffffffff1673ffffffffffffffffffffffffffffffffffffffff1603610adb578180610ad790614b62565b9250505b8080610ae690614b62565b915050610a5b565b508067ffffffffffffffff811115610b0957610b086144c5565b5b604051908082528060200260200182016040528015610b375781602001602082028036833780820191505090505b5096508067ffffffffffffffff811115610b5457610b536144c5565b5b604051908082528060200260200182016040528015610b825781602001602082028036833780820191505090505b5095508067ffffffffffffffff811115610b9f57610b9e6144c5565b5b604051908082528060200260200182016040528015610bcd5781602001602082028036833780820191505090505b5094508067ffffffffffffffff811115610bea57610be96144c5565b5b604051908082528060200260200182016040528015610c185781602001602082028036833780820191505090505b5093508067ffffffffffffffff811115610c3557610c346144c5565b5b604051908082528060200260200182016040528015610c635781602001602082028036833780820191505090505b5092506000805b83811015610e66576000600b600083815260200190815260200160002090503373ffffffffffffffffffffffffffffffffffffffff168160020160009054906101000a900473ffffffffffffffffffffffffffffffffffffffff1673ffffffffffffffffffffffffffffffffffffffff1603610e525780600001548a8481518110610cf857610cf7614baa565b5b6020026020010181815250508060020160009054906101000a900473ffffffffffffffffffffffffffffffffffffffff16898481518110610d3c57610d3b614baa565b5b602002602001019073ffffffffffffffffffffffffffffffffffffffff16908173ffffffffffffffffffffffffffffffffffffffff16815250508060020160009054906101000a900473ffffffffffffffffffffffffffffffffffffffff16888481518110610dae57610dad614baa565b5b602002602001019073ffffffffffffffffffffffffffffffffffffffff16908173ffffffffffffffffffffffffffffffffffffffff16815250508060030154878481518110610e0057610dff614baa565b5b6020026020010181815250508060040160009054906101000a900460ff16868481518110610e3157610e30614baa565b5b6020026020010190151590811515815250508280610e4e90614b62565b9350505b508080610e5e90614b62565b915050610c6a565b505050509091929394565b6000610e7c826128dd565b9050919050565b6000600a54905090565b60008073ffffffffffffffffffffffffffffffffffffffff168273ffffffffffffffffffffffffffffffffffffffff1603610f005760006040517f89c62b64000000000000000000000000000000000000000000000000000000008152600401610ef79190613e88565b60405180910390fd5b600360008373ffffffffffffffffffffffffffffffffffffffff1673ffffffffffffffffffffffffffffffffffffffff168152602001908152602001600020549050919050565b3373ffffffffffffffffffffffffffffffffffffffff16600b600084815260200190815260200160002060020160009054906101000a900473ffffffffffffffffffffffffffffffffffffffff1673ffffffffffffffffffffffffffffffffffffffff1614610feb576040517f08c379a0000000000000000000000000000000000000000000000000000000008152600401610fe290614c4b565b60405180910390fd5b6000600b60008481526020019081526020016000209050818160040160006101000a81548160ff021916908315150217905550827fc45ba25a0addb3c44a9a34a2f1f17af6265166fb640ff16cd1cc88ee193a7d9f83334260405161105293929190614c6b565b60405180910390a2505050565b3373ffffffffffffffffffffffffffffffffffffffff16600b600084815260200190815260200160002060020160009054906101000a900473ffffffffffffffffffffffffffffffffffffffff1673ffffffffffffffffffffffffffffffffffffffff1614611103576040517f08c379a00000000000000000000000000000000000000000000000000000000081526004016110fa90614d14565b60405180910390fd5b6000811015611147576040517f08c379a000000000000000000000000000000000000000000000000000000000815260040161113e90614da6565b60405180910390fd5b6000600b6000848152602001908152602001600020905060008160030154905060405180606001604052808481526020014281526020013373ffffffffffffffffffffffffffffffffffffffff1681525082600601600084600501548152602001908152602001600020600082015181600001556020820151816001015560408201518160020160006101000a81548173ffffffffffffffffffffffffffffffffffffffff021916908373ffffffffffffffffffffffffffffffffffffffff16021790555090505081600501600081548092919061122490614b62565b9190505550828260030181905550837f6bf0cbee07df5583c79c86873021591125f122b724e0ab8263ede6d2df19e67d828533426040516112689493929190614dc6565b60405180910390a250505050565b600080600080600080600b6000888152602001908152602001600020905080600001548160010160009054906101000a900473ffffffffffffffffffffffffffffffffffffffff168260020160009054906101000a900473ffffffffffffffffffffffffffffffffffffffff1683600301548460040160009054906101000a900460ff16955095509550955095505091939590929450565b60606001805461131d90614a36565b80601f016020809104026020016040519081016040528092919081815260200182805461134990614a36565b80156113965780601f1061136b57610100808354040283529160200191611396565b820191906000526020600020905b81548152906001019060200180831161137957829003601f168201915b5050505050905090565b6113a8612bd6565b6000600b600083815260200190815260200160002090506000816003015490506000600b600085815260200190815260200160002060020160009054906101000a900473ffffffffffffffffffffffffffffffffffffffff1690508260040160009054906101000a900460ff16611454576040517f08c379a000000000000000000000000000000000000000000000000000000000815260040161144b90614e57565b60405180910390fd5b813414611496576040517f08c379a000000000000000000000000000000000000000000000000000000000815260040161148d90614ec3565b60405180910390fd5b8073ffffffffffffffffffffffffffffffffffffffff163373ffffffffffffffffffffffffffffffffffffffff1603611504576040517f08c379a00000000000000000000000000000000000000000000000000000000081526004016114fb90614f2f565b60405180910390fd5b61155a6040518060400160405280601d81526020017f4f776e65722062616c616e6365206265666f72652073616c653a2025730000008152508273ffffffffffffffffffffffffffffffffffffffff1631612c1c565b6115b06040518060400160405280601d81526020017f42757965722062616c616e6365206265666f72652073616c653a2025730000008152503373ffffffffffffffffffffffffffffffffffffffff1631612c1c565b6115d26040518060600160405280602381526020016157f46023913947612c1c565b60008360040160006101000a81548160ff021916908315150217905550338360020160006101000a81548173ffffffffffffffffffffffffffffffffffffffff021916908373ffffffffffffffffffffffffffffffffffffffff1602179055506000600a5490506000600a54346116499190614f4f565b9050600960009054906101000a900473ffffffffffffffffffffffffffffffffffffffff1673ffffffffffffffffffffffffffffffffffffffff166108fc839081150290604051600060405180830381858888f193505050501580156116b3573d6000803e3d6000fd5b508273ffffffffffffffffffffffffffffffffffffffff166108fc829081150290604051600060405180830381858888f193505050501580156116fa573d6000803e3d6000fd5b50611706833388612cb8565b60405180606001604052808581526020014281526020013373ffffffffffffffffffffffffffffffffffffffff1681525085600601600087600501548152602001908152602001600020600082015181600001556020820151816001015560408201518160020160006101000a81548173ffffffffffffffffffffffffffffffffffffffff021916908373ffffffffffffffffffffffffffffffffffffffff1602179055509050508460050160008154809291906117c390614b62565b919050555061181e6040518060400160405280601c81526020017f4f776e65722062616c616e63652061667465722073616c653a202573000000008152508473ffffffffffffffffffffffffffffffffffffffff1631612c1c565b6118746040518060400160405280601c81526020017f42757965722062616c616e63652061667465722073616c653a202573000000008152503373ffffffffffffffffffffffffffffffffffffffff1631612c1c565b6118966040518060600160405280602281526020016157d26022913947612c1c565b857fa831d161ab34fd077c450edfeeac91cd8cc4e1d8a3b07930cf05bf9c0a23d83e843387426040516118cc9493929190614fe2565b60405180910390a250505050506118e1612e25565b50565b6118f66118ef6129a2565b8383612e2f565b5050565b60606000600b600084815260200190815260200160002090506000816005015467ffffffffffffffff811115611933576119326144c5565b5b60405190808252806020026020018201604052801561196c57816020015b611959613c22565b8152602001906001900390816119515790505b50905060005b8260050154811015611a395782600601600082815260200190815260200160002060405180606001604052908160008201548152602001600182015481526020016002820160009054906101000a900473ffffffffffffffffffffffffffffffffffffffff1673ffffffffffffffffffffffffffffffffffffffff1673ffffffffffffffffffffffffffffffffffffffff1681525050828281518110611a1b57611a1a614baa565b5b60200260200101819052508080611a3190614b62565b915050611972565b508092505050919050565b611a4f8484846107c0565b611a63611a5a6129a2565b85858585612f9e565b50505050565b600960009054906101000a900473ffffffffffffffffffffffffffffffffffffffff1673ffffffffffffffffffffffffffffffffffffffff163373ffffffffffffffffffffffffffffffffffffffff1614611af9576040517f08c379a0000000000000000000000000000000000000000000000000000000008152600401611af090615099565b60405180910390fd5b80600a8190555050565b6060611b0e826128dd565b506000600660008481526020019081526020016000208054611b2f90614a36565b80601f0160208091040260200160405190810160405280929190818152602001828054611b5b90614a36565b8015611ba85780601f10611b7d57610100808354040283529160200191611ba8565b820191906000526020600020905b815481529060010190602001808311611b8b57829003601f168201915b505050505090506000611bb961314f565b90506000815103611bce578192505050611c11565b600082511115611c03578082604051602001611beb9291906150f5565b60405160208183030381529060405292505050611c11565b611c0c84613166565b925050505b919050565b6000806000806000806001600854611c2e9190614f4f565b90506000600b6000838152602001908152602001600020905080600001548160010160009054906101000a900473ffffffffffffffffffffffffffffffffffffffff168260020160009054906101000a900473ffffffffffffffffffffffffffffffffffffffff1683600301548460040160009054906101000a900460ff169650965096509650965050509091929394565b6000600854905060005b838390508110156122c857600073ffffffffffffffffffffffffffffffffffffffff16848483818110611d0057611cff614baa565b5b9050602002810190611d129190615128565b6000016020810190611d24919061423c565b73ffffffffffffffffffffffffffffffffffffffff1603611d7a576040517f08c379a0000000000000000000000000000000000000000000000000000000008152600401611d719061519c565b60405180910390fd5b6000848483818110611d8f57611d8e614baa565b5b9050602002810190611da19190615128565b8060200190611db091906151bc565b905011611df2576040517f08c379a0000000000000000000000000000000000000000000000000000000008152600401611de99061526b565b60405180910390fd5b6000848483818110611e0757611e06614baa565b5b9050602002810190611e199190615128565b608001359050611e5f858584818110611e3557611e34614baa565b5b9050602002810190611e479190615128565b6000016020810190611e59919061423c565b826131cf565b611edf81868685818110611e7657611e75614baa565b5b9050602002810190611e889190615128565b8060200190611e9791906151bc565b8080601f016020809104026020016040519081016040528093929190818152602001838380828437600081840152601f19601f820116905080830192505050505050506131ed565b6000600b60008381526020019081526020016000209050858584818110611f0957611f08614baa565b5b9050602002810190611f1b9190615128565b608001358160000181905550858584818110611f3a57611f39614baa565b5b9050602002810190611f4c9190615128565b6000016020810190611f5e919061423c565b8160010160006101000a81548173ffffffffffffffffffffffffffffffffffffffff021916908373ffffffffffffffffffffffffffffffffffffffff160217905550858584818110611fb357611fb2614baa565b5b9050602002810190611fc59190615128565b6000016020810190611fd7919061423c565b8160020160006101000a81548173ffffffffffffffffffffffffffffffffffffffff021916908373ffffffffffffffffffffffffffffffffffffffff16021790555085858481811061202c5761202b614baa565b5b905060200281019061203e9190615128565b60400135816003018190555085858481811061205d5761205c614baa565b5b905060200281019061206f9190615128565b6060016020810190612081919061528b565b8160040160006101000a81548160ff02191690831515021790555060405180606001604052808787868181106120ba576120b9614baa565b5b90506020028101906120cc9190615128565b6040013581526020014281526020018787868181106120ee576120ed614baa565b5b90506020028101906121009190615128565b6000016020810190612112919061423c565b73ffffffffffffffffffffffffffffffffffffffff16815250816006016000808152602001908152602001600020600082015181600001556020820151816001015560408201518160020160006101000a81548173ffffffffffffffffffffffffffffffffffffffff021916908373ffffffffffffffffffffffffffffffffffffffff16021790555090505060018160050181905550817f9339409317fd01fabff48b703019016f49159bacc801ae872d2ca637d226e4c08787868181106121dd576121dc614baa565b5b90506020028101906121ef9190615128565b6000016020810190612201919061423c565b88888781811061221457612213614baa565b5b90506020028101906122269190615128565b6000016020810190612238919061423c565b89898881811061224b5761224a614baa565b5b905060200281019061225d9190615128565b604001358a8a8981811061227457612273614baa565b5b90506020028101906122869190615128565b6060016020810190612298919061528b565b6040516122a894939291906152b8565b60405180910390a2819350505080806122c090614b62565b915050611cca565b506001816122d691906152fd565b600881905550505050565b606080606080606080600080600190505b600854811161233b576000600b6000838152602001908152602001600020600001541461232857818061232490614b62565b9250505b808061233390614b62565b9150506122f2565b508067ffffffffffffffff811115612356576123556144c5565b5b6040519080825280602002602001820160405280156123845781602001602082028036833780820191505090505b5096508067ffffffffffffffff8111156123a1576123a06144c5565b5b6040519080825280602002602001820160405280156123d457816020015b60608152602001906001900390816123bf5790505b5095508067ffffffffffffffff8111156123f1576123f06144c5565b5b60405190808252806020026020018201604052801561241f5781602001602082028036833780820191505090505b5094508067ffffffffffffffff81111561243c5761243b6144c5565b5b60405190808252806020026020018201604052801561246a5781602001602082028036833780820191505090505b5093508067ffffffffffffffff811115612487576124866144c5565b5b6040519080825280602002602001820160405280156124b55781602001602082028036833780820191505090505b5092508067ffffffffffffffff8111156124d2576124d16144c5565b5b6040519080825280602002602001820160405280156125005781602001602082028036833780820191505090505b509150600080600190505b60085481116126fa576000600b600083815260200190815260200160002060000154146126e7576000600b6000838152602001908152602001600020905080600001548a848151811061256157612560614baa565b5b60200260200101818152505061257a8160000154611b03565b89848151811061258d5761258c614baa565b5b60200260200101819052508060010160009054906101000a900473ffffffffffffffffffffffffffffffffffffffff168884815181106125d0576125cf614baa565b5b602002602001019073ffffffffffffffffffffffffffffffffffffffff16908173ffffffffffffffffffffffffffffffffffffffff16815250508060020160009054906101000a900473ffffffffffffffffffffffffffffffffffffffff1687848151811061264257612641614baa565b5b602002602001019073ffffffffffffffffffffffffffffffffffffffff16908173ffffffffffffffffffffffffffffffffffffffff1681525050806003015486848151811061269457612693614baa565b5b6020026020010181815250508060040160009054906101000a900460ff168584815181106126c5576126c4614baa565b5b60200260200101901515908115158152505082806126e290614b62565b935050505b80806126f290614b62565b91505061250b565b505050909192939495565b6000600560008473ffffffffffffffffffffffffffffffffffffffff1673ffffffffffffffffffffffffffffffffffffffff16815260200190815260200160002060008373ffffffffffffffffffffffffffffffffffffffff1673ffffffffffffffffffffffffffffffffffffffff16815260200190815260200160002060009054906101000a900460ff16905092915050565b600060016008546127aa9190614f4f565b905090565b60008060085490506001600860008282546127ca91906152fd565b925050819055506127db33826131cf565b6127e581866131ed565b6127f0818585613249565b809150509392505050565b60007f80ac58cd000000000000000000000000000000000000000000000000000000007bffffffffffffffffffffffffffffffffffffffffffffffffffffffff1916827bffffffffffffffffffffffffffffffffffffffffffffffffffffffff191614806128c657507f5b5e139f000000000000000000000000000000000000000000000000000000007bffffffffffffffffffffffffffffffffffffffffffffffffffffffff1916827bffffffffffffffffffffffffffffffffffffffffffffffffffffffff1916145b806128d657506128d5826134ad565b5b9050919050565b6000806128e983613517565b9050600073ffffffffffffffffffffffffffffffffffffffff168173ffffffffffffffffffffffffffffffffffffffff160361295c57826040517f7e2732890000000000000000000000000000000000000000000000000000000081526004016129539190614221565b60405180910390fd5b80915050919050565b60006004600083815260200190815260200160002060009054906101000a900473ffffffffffffffffffffffffffffffffffffffff169050919050565b600033905090565b6129b78383836001613554565b505050565b6000806129c884613517565b9050600073ffffffffffffffffffffffffffffffffffffffff168373ffffffffffffffffffffffffffffffffffffffff1614612a0a57612a09818486613719565b5b600073ffffffffffffffffffffffffffffffffffffffff168173ffffffffffffffffffffffffffffffffffffffff1614612a9b57612a4c600085600080613554565b6001600360008373ffffffffffffffffffffffffffffffffffffffff1673ffffffffffffffffffffffffffffffffffffffff168152602001908152602001600020600082825403925050819055505b600073ffffffffffffffffffffffffffffffffffffffff168573ffffffffffffffffffffffffffffffffffffffff1614612b1e576001600360008773ffffffffffffffffffffffffffffffffffffffff1673ffffffffffffffffffffffffffffffffffffffff168152602001908152602001600020600082825401925050819055505b846002600086815260200190815260200160002060006101000a81548173ffffffffffffffffffffffffffffffffffffffff021916908373ffffffffffffffffffffffffffffffffffffffff160217905550838573ffffffffffffffffffffffffffffffffffffffff168273ffffffffffffffffffffffffffffffffffffffff167fddf252ad1be2c89b69c2b068fc378daa952ba7f163c4a11628f55a4df523b3ef60405160405180910390a4809150509392505050565b600260075403612c12576040517f3ee5aeb500000000000000000000000000000000000000000000000000000000815260040160405180910390fd5b6002600781905550565b612cb48282604051602401612c32929190615331565b6040516020818303038152906040527fb60e72cc000000000000000000000000000000000000000000000000000000007bffffffffffffffffffffffffffffffffffffffffffffffffffffffff19166020820180517bffffffffffffffffffffffffffffffffffffffffffffffffffffffff83818316178352505050506137dd565b5050565b600073ffffffffffffffffffffffffffffffffffffffff168273ffffffffffffffffffffffffffffffffffffffff1603612d2a5760006040517f64a0ae92000000000000000000000000000000000000000000000000000000008152600401612d219190613e88565b60405180910390fd5b6000612d38838360006129bc565b9050600073ffffffffffffffffffffffffffffffffffffffff168173ffffffffffffffffffffffffffffffffffffffff1603612dab57816040517f7e273289000000000000000000000000000000000000000000000000000000008152600401612da29190614221565b60405180910390fd5b8373ffffffffffffffffffffffffffffffffffffffff168173ffffffffffffffffffffffffffffffffffffffff1614612e1f578382826040517f64283d7b000000000000000000000000000000000000000000000000000000008152600401612e1693929190614a67565b60405180910390fd5b50505050565b6001600781905550565b600073ffffffffffffffffffffffffffffffffffffffff168273ffffffffffffffffffffffffffffffffffffffff1603612ea057816040517f5b08ba18000000000000000000000000000000000000000000000000000000008152600401612e979190613e88565b60405180910390fd5b80600560008573ffffffffffffffffffffffffffffffffffffffff1673ffffffffffffffffffffffffffffffffffffffff16815260200190815260200160002060008473ffffffffffffffffffffffffffffffffffffffff1673ffffffffffffffffffffffffffffffffffffffff16815260200190815260200160002060006101000a81548160ff0219169083151502179055508173ffffffffffffffffffffffffffffffffffffffff168373ffffffffffffffffffffffffffffffffffffffff167f17307eab39ab6107e8899845ad3d59bd9653f200f220920489ca2b5937696c3183604051612f919190613d17565b60405180910390a3505050565b60008373ffffffffffffffffffffffffffffffffffffffff163b1115613148578273ffffffffffffffffffffffffffffffffffffffff1663150b7a02868685856040518563ffffffff1660e01b8152600401612ffd94939291906153b6565b6020604051808303816000875af192505050801561303957506040513d601f19601f820116820180604052508101906130369190615417565b60015b6130bd573d8060008114613069576040519150601f19603f3d011682016040523d82523d6000602084013e61306e565b606091505b5060008151036130b557836040517f64a0ae920000000000000000000000000000000000000000000000000000000081526004016130ac9190613e88565b60405180910390fd5b805181602001fd5b63150b7a0260e01b7bffffffffffffffffffffffffffffffffffffffffffffffffffffffff1916817bffffffffffffffffffffffffffffffffffffffffffffffffffffffff19161461314657836040517f64a0ae9200000000000000000000000000000000000000000000000000000000815260040161313d9190613e88565b60405180910390fd5b505b5050505050565b606060405180602001604052806000815250905090565b6060613171826128dd565b50600061317c61314f565b9050600081511161319c57604051806020016040528060008152506131c7565b806131a6846137f7565b6040516020016131b79291906150f5565b6040516020818303038152906040525b915050919050565b6131e98282604051806020016040528060008152506138c5565b5050565b8060066000848152602001908152602001600020908161320d91906155e6565b507ff8e1a15aba9398e019f0b49df1a4fde98ee17ae345cb5f6b5e2c27f5033e8ce78260405161323d9190614221565b60405180910390a15050565b600a54341461328d576040517f08c379a00000000000000000000000000000000000000000000000000000000081526004016132849061572a565b60405180910390fd5b60008210156132d1576040517f08c379a00000000000000000000000000000000000000000000000000000000081526004016132c890614da6565b60405180910390fd5b6000600b60008581526020019081526020016000209050838160000181905550338160010160006101000a81548173ffffffffffffffffffffffffffffffffffffffff021916908373ffffffffffffffffffffffffffffffffffffffff160217905550338160020160006101000a81548173ffffffffffffffffffffffffffffffffffffffff021916908373ffffffffffffffffffffffffffffffffffffffff160217905550828160030181905550818160040160006101000a81548160ff02191690831515021790555060405180606001604052808481526020014281526020013373ffffffffffffffffffffffffffffffffffffffff1681525081600601600083600501548152602001908152602001600020600082015181600001556020820151816001015560408201518160020160006101000a81548173ffffffffffffffffffffffffffffffffffffffff021916908373ffffffffffffffffffffffffffffffffffffffff16021790555090505080600501600081548092919061345990614b62565b9190505550613469333086612cb8565b837f9339409317fd01fabff48b703019016f49159bacc801ae872d2ca637d226e4c03333868660405161349f94939291906152b8565b60405180910390a250505050565b60007f01ffc9a7000000000000000000000000000000000000000000000000000000007bffffffffffffffffffffffffffffffffffffffffffffffffffffffff1916827bffffffffffffffffffffffffffffffffffffffffffffffffffffffff1916149050919050565b60006002600083815260200190815260200160002060009054906101000a900473ffffffffffffffffffffffffffffffffffffffff169050919050565b808061358d5750600073ffffffffffffffffffffffffffffffffffffffff168273ffffffffffffffffffffffffffffffffffffffff1614155b156136c157600061359d846128dd565b9050600073ffffffffffffffffffffffffffffffffffffffff168373ffffffffffffffffffffffffffffffffffffffff161415801561360857508273ffffffffffffffffffffffffffffffffffffffff168173ffffffffffffffffffffffffffffffffffffffff1614155b801561361b57506136198184612705565b155b1561365d57826040517fa9fbf51f0000000000000000000000000000000000000000000000000000000081526004016136549190613e88565b60405180910390fd5b81156136bf57838573ffffffffffffffffffffffffffffffffffffffff168273ffffffffffffffffffffffffffffffffffffffff167f8c5be1e5ebec7d5bd14f71427d1e84f3dd0314c0f7b2291e5b200ac8c7c3b92560405160405180910390a45b505b836004600085815260200190815260200160002060006101000a81548173ffffffffffffffffffffffffffffffffffffffff021916908373ffffffffffffffffffffffffffffffffffffffff16021790555050505050565b6137248383836138e9565b6137d857600073ffffffffffffffffffffffffffffffffffffffff168373ffffffffffffffffffffffffffffffffffffffff160361379957806040517f7e2732890000000000000000000000000000000000000000000000000000000081526004016137909190614221565b60405180910390fd5b81816040517f177e802f0000000000000000000000000000000000000000000000000000000081526004016137cf92919061574a565b60405180910390fd5b505050565b6137f4816137ec6139aa6139cb565b63ffffffff16565b50565b606060006001613806846139d6565b01905060008167ffffffffffffffff811115613825576138246144c5565b5b6040519080825280601f01601f1916602001820160405280156138575781602001600182028036833780820191505090505b509050600082602001820190505b6001156138ba578080600190039150507f3031323334353637383961626364656600000000000000000000000000000000600a86061a8153600a85816138ae576138ad615773565b5b04945060008503613865575b819350505050919050565b6138cf8383613b29565b6138e46138da6129a2565b6000858585612f9e565b505050565b60008073ffffffffffffffffffffffffffffffffffffffff168373ffffffffffffffffffffffffffffffffffffffff16141580156139a157508273ffffffffffffffffffffffffffffffffffffffff168473ffffffffffffffffffffffffffffffffffffffff16148061396257506139618484612705565b5b806139a057508273ffffffffffffffffffffffffffffffffffffffff1661398883612965565b73ffffffffffffffffffffffffffffffffffffffff16145b5b90509392505050565b60006a636f6e736f6c652e6c6f679050600080835160208501845afa505050565b613c59819050919050565b600080600090507a184f03e93ff9f4daa797ed6e38ed64bf6a1f0100000000000000008310613a34577a184f03e93ff9f4daa797ed6e38ed64bf6a1f0100000000000000008381613a2a57613a29615773565b5b0492506040810190505b6d04ee2d6d415b85acef81000000008310613a71576d04ee2d6d415b85acef81000000008381613a6757613a66615773565b5b0492506020810190505b662386f26fc100008310613aa057662386f26fc100008381613a9657613a95615773565b5b0492506010810190505b6305f5e1008310613ac9576305f5e1008381613abf57613abe615773565b5b0492506008810190505b6127108310613aee576127108381613ae457613ae3615773565b5b0492506004810190505b60648310613b115760648381613b0757613b06615773565b5b0492506002810190505b600a8310613b20576001810190505b80915050919050565b600073ffffffffffffffffffffffffffffffffffffffff168273ffffffffffffffffffffffffffffffffffffffff1603613b9b5760006040517f64a0ae92000000000000000000000000000000000000000000000000000000008152600401613b929190613e88565b60405180910390fd5b6000613ba9838360006129bc565b9050600073ffffffffffffffffffffffffffffffffffffffff168173ffffffffffffffffffffffffffffffffffffffff1614613c1d5760006040517f73c6ac6e000000000000000000000000000000000000000000000000000000008152600401613c149190613e88565b60405180910390fd5b505050565b60405180606001604052806000815260200160008152602001600073ffffffffffffffffffffffffffffffffffffffff1681525090565b613c616157a2565b565b6000604051905090565b600080fd5b600080fd5b60007fffffffff0000000000000000000000000000000000000000000000000000000082169050919050565b613cac81613c77565b8114613cb757600080fd5b50565b600081359050613cc981613ca3565b92915050565b600060208284031215613ce557613ce4613c6d565b5b6000613cf384828501613cba565b91505092915050565b60008115159050919050565b613d1181613cfc565b82525050565b6000602082019050613d2c6000830184613d08565b92915050565b600081519050919050565b600082825260208201905092915050565b60005b83811015613d6c578082015181840152602081019050613d51565b60008484015250505050565b6000601f19601f8301169050919050565b6000613d9482613d32565b613d9e8185613d3d565b9350613dae818560208601613d4e565b613db781613d78565b840191505092915050565b60006020820190508181036000830152613ddc8184613d89565b905092915050565b6000819050919050565b613df781613de4565b8114613e0257600080fd5b50565b600081359050613e1481613dee565b92915050565b600060208284031215613e3057613e2f613c6d565b5b6000613e3e84828501613e05565b91505092915050565b600073ffffffffffffffffffffffffffffffffffffffff82169050919050565b6000613e7282613e47565b9050919050565b613e8281613e67565b82525050565b6000602082019050613e9d6000830184613e79565b92915050565b613eac81613e67565b8114613eb757600080fd5b50565b600081359050613ec981613ea3565b92915050565b60008060408385031215613ee657613ee5613c6d565b5b6000613ef485828601613eba565b9250506020613f0585828601613e05565b9150509250929050565b600080600060608486031215613f2857613f27613c6d565b5b6000613f3686828701613eba565b9350506020613f4786828701613eba565b9250506040613f5886828701613e05565b9150509250925092565b600081519050919050565b600082825260208201905092915050565b6000819050602082019050919050565b613f9781613de4565b82525050565b6000613fa98383613f8e565b60208301905092915050565b6000602082019050919050565b6000613fcd82613f62565b613fd78185613f6d565b9350613fe283613f7e565b8060005b83811015614013578151613ffa8882613f9d565b975061400583613fb5565b925050600181019050613fe6565b5085935050505092915050565b600081519050919050565b600082825260208201905092915050565b6000819050602082019050919050565b61405581613e67565b82525050565b6000614067838361404c565b60208301905092915050565b6000602082019050919050565b600061408b82614020565b614095818561402b565b93506140a08361403c565b8060005b838110156140d15781516140b8888261405b565b97506140c383614073565b9250506001810190506140a4565b5085935050505092915050565b600081519050919050565b600082825260208201905092915050565b6000819050602082019050919050565b61411381613cfc565b82525050565b6000614125838361410a565b60208301905092915050565b6000602082019050919050565b6000614149826140de565b61415381856140e9565b935061415e836140fa565b8060005b8381101561418f5781516141768882614119565b975061418183614131565b925050600181019050614162565b5085935050505092915050565b600060a08201905081810360008301526141b68188613fc2565b905081810360208301526141ca8187614080565b905081810360408301526141de8186614080565b905081810360608301526141f28185613fc2565b90508181036080830152614206818461413e565b90509695505050505050565b61421b81613de4565b82525050565b60006020820190506142366000830184614212565b92915050565b60006020828403121561425257614251613c6d565b5b600061426084828501613eba565b91505092915050565b61427281613cfc565b811461427d57600080fd5b50565b60008135905061428f81614269565b92915050565b600080604083850312156142ac576142ab613c6d565b5b60006142ba85828601613e05565b92505060206142cb85828601614280565b9150509250929050565b600080604083850312156142ec576142eb613c6d565b5b60006142fa85828601613e05565b925050602061430b85828601613e05565b9150509250929050565b600060a08201905061432a6000830188614212565b6143376020830187613e79565b6143446040830186613e79565b6143516060830185614212565b61435e6080830184613d08565b9695505050505050565b6000806040838503121561437f5761437e613c6d565b5b600061438d85828601613eba565b925050602061439e85828601614280565b9150509250929050565b600081519050919050565b600082825260208201905092915050565b6000819050602082019050919050565b6060820160008201516143ea6000850182613f8e565b5060208201516143fd6020850182613f8e565b506040820151614410604085018261404c565b50505050565b600061442283836143d4565b60608301905092915050565b6000602082019050919050565b6000614446826143a8565b61445081856143b3565b935061445b836143c4565b8060005b8381101561448c5781516144738882614416565b975061447e8361442e565b92505060018101905061445f565b5085935050505092915050565b600060208201905081810360008301526144b3818461443b565b905092915050565b600080fd5b600080fd5b7f4e487b7100000000000000000000000000000000000000000000000000000000600052604160045260246000fd5b6144fd82613d78565b810181811067ffffffffffffffff8211171561451c5761451b6144c5565b5b80604052505050565b600061452f613c63565b905061453b82826144f4565b919050565b600067ffffffffffffffff82111561455b5761455a6144c5565b5b61456482613d78565b9050602081019050919050565b82818337600083830152505050565b600061459361458e84614540565b614525565b9050828152602081018484840111156145af576145ae6144c0565b5b6145ba848285614571565b509392505050565b600082601f8301126145d7576145d66144bb565b5b81356145e7848260208601614580565b91505092915050565b6000806000806080858703121561460a57614609613c6d565b5b600061461887828801613eba565b945050602061462987828801613eba565b935050604061463a87828801613e05565b925050606085013567ffffffffffffffff81111561465b5761465a613c72565b5b614667878288016145c2565b91505092959194509250565b600080fd5b600080fd5b60008083601f840112614693576146926144bb565b5b8235905067ffffffffffffffff8111156146b0576146af614673565b5b6020830191508360208202830111156146cc576146cb614678565b5b9250929050565b600080602083850312156146ea576146e9613c6d565b5b600083013567ffffffffffffffff81111561470857614707613c72565b5b6147148582860161467d565b92509250509250929050565b600081519050919050565b600082825260208201905092915050565b6000819050602082019050919050565b600082825260208201905092915050565b600061476882613d32565b614772818561474c565b9350614782818560208601613d4e565b61478b81613d78565b840191505092915050565b60006147a2838361475d565b905092915050565b6000602082019050919050565b60006147c282614720565b6147cc818561472b565b9350836020820285016147de8561473c565b8060005b8581101561481a57848403895281516147fb8582614796565b9450614806836147aa565b925060208a019950506001810190506147e2565b50829750879550505050505092915050565b600060c08201905081810360008301526148468189613fc2565b9050818103602083015261485a81886147b7565b9050818103604083015261486e8187614080565b905081810360608301526148828186614080565b905081810360808301526148968185613fc2565b905081810360a08301526148aa818461413e565b9050979650505050505050565b600080604083850312156148ce576148cd613c6d565b5b60006148dc85828601613eba565b92505060206148ed85828601613eba565b9150509250929050565b600067ffffffffffffffff821115614912576149116144c5565b5b61491b82613d78565b9050602081019050919050565b600061493b614936846148f7565b614525565b905082815260208101848484011115614957576149566144c0565b5b614962848285614571565b509392505050565b600082601f83011261497f5761497e6144bb565b5b813561498f848260208601614928565b91505092915050565b6000806000606084860312156149b1576149b0613c6d565b5b600084013567ffffffffffffffff8111156149cf576149ce613c72565b5b6149db8682870161496a565b93505060206149ec86828701613e05565b92505060406149fd86828701614280565b9150509250925092565b7f4e487b7100000000000000000000000000000000000000000000000000000000600052602260045260246000fd5b60006002820490506001821680614a4e57607f821691505b602082108103614a6157614a60614a07565b5b50919050565b6000606082019050614a7c6000830186613e79565b614a896020830185614212565b614a966040830184613e79565b949350505050565b7f4e6f2066756e647320746f207769746864726177000000000000000000000000600082015250565b6000614ad4601483613d3d565b9150614adf82614a9e565b602082019050919050565b60006020820190508181036000830152614b0381614ac7565b9050919050565b6000604082019050614b1f6000830185614212565b614b2c6020830184614212565b9392505050565b7f4e487b7100000000000000000000000000000000000000000000000000000000600052601160045260246000fd5b6000614b6d82613de4565b91507fffffffffffffffffffffffffffffffffffffffffffffffffffffffffffffffff8203614b9f57614b9e614b33565b5b600182019050919050565b7f4e487b7100000000000000000000000000000000000000000000000000000000600052603260045260246000fd5b7f4f6e6c79207468652073656c6c65722063616e2075706461746520746865206c60008201527f697374696e672073746174757300000000000000000000000000000000000000602082015250565b6000614c35602d83613d3d565b9150614c4082614bd9565b604082019050919050565b60006020820190508181036000830152614c6481614c28565b9050919050565b6000606082019050614c806000830186613d08565b614c8d6020830185613e79565b614c9a6040830184614212565b949350505050565b7f4f6e6c79207468652073656c6c65722063616e2075706461746520746865207060008201527f7269636500000000000000000000000000000000000000000000000000000000602082015250565b6000614cfe602483613d3d565b9150614d0982614ca2565b604082019050919050565b60006020820190508181036000830152614d2d81614cf1565b9050919050565b7f5072696365206d7573742062652067726561746572206f7220657175616c207460008201527f6f20300000000000000000000000000000000000000000000000000000000000602082015250565b6000614d90602383613d3d565b9150614d9b82614d34565b604082019050919050565b60006020820190508181036000830152614dbf81614d83565b9050919050565b6000608082019050614ddb6000830187614212565b614de86020830186614212565b614df56040830185613e79565b614e026060830184614212565b95945050505050565b7f546f6b656e206973206e6f74206c697374656420666f722073616c6500000000600082015250565b6000614e41601c83613d3d565b9150614e4c82614e0b565b602082019050919050565b60006020820190508181036000830152614e7081614e34565b9050919050565b7f496e636f72726563742070726963650000000000000000000000000000000000600082015250565b6000614ead600f83613d3d565b9150614eb882614e77565b602082019050919050565b60006020820190508181036000830152614edc81614ea0565b9050919050565b7f43616e6e6f742062757920796f7572206f776e20746f6b656e00000000000000600082015250565b6000614f19601983613d3d565b9150614f2482614ee3565b602082019050919050565b60006020820190508181036000830152614f4881614f0c565b9050919050565b6000614f5a82613de4565b9150614f6583613de4565b9250828203905081811115614f7d57614f7c614b33565b5b92915050565b6000819050919050565b6000614fa8614fa3614f9e84613e47565b614f83565b613e47565b9050919050565b6000614fba82614f8d565b9050919050565b6000614fcc82614faf565b9050919050565b614fdc81614fc1565b82525050565b6000608082019050614ff76000830187614fd3565b6150046020830186613e79565b6150116040830185614212565b61501e6060830184614212565b95945050505050565b7f4f6e6c79206f776e65722063616e2075706461746520746865206c697374207060008201527f7269636500000000000000000000000000000000000000000000000000000000602082015250565b6000615083602483613d3d565b915061508e82615027565b604082019050919050565b600060208201905081810360008301526150b281615076565b9050919050565b600081905092915050565b60006150cf82613d32565b6150d981856150b9565b93506150e9818560208601613d4e565b80840191505092915050565b600061510182856150c4565b915061510d82846150c4565b91508190509392505050565b600080fd5b600080fd5b600080fd5b60008235600160a00383360303811261514457615143615119565b5b80830191505092915050565b7f496e76616c6964206f776e657220616464726573730000000000000000000000600082015250565b6000615186601583613d3d565b915061519182615150565b602082019050919050565b600060208201905081810360008301526151b581615179565b9050919050565b600080833560016020038436030381126151d9576151d8615119565b5b80840192508235915067ffffffffffffffff8211156151fb576151fa61511e565b5b60208301925060018202360383131561521757615216615123565b5b509250929050565b7f456d70747920746f6b656e555249000000000000000000000000000000000000600082015250565b6000615255600e83613d3d565b91506152608261521f565b602082019050919050565b6000602082019050818103600083015261528481615248565b9050919050565b6000602082840312156152a1576152a0613c6d565b5b60006152af84828501614280565b91505092915050565b60006080820190506152cd6000830187613e79565b6152da6020830186613e79565b6152e76040830185614212565b6152f46060830184613d08565b95945050505050565b600061530882613de4565b915061531383613de4565b925082820190508082111561532b5761532a614b33565b5b92915050565b6000604082019050818103600083015261534b8185613d89565b905061535a6020830184614212565b9392505050565b600081519050919050565b600082825260208201905092915050565b600061538882615361565b615392818561536c565b93506153a2818560208601613d4e565b6153ab81613d78565b840191505092915050565b60006080820190506153cb6000830187613e79565b6153d86020830186613e79565b6153e56040830185614212565b81810360608301526153f7818461537d565b905095945050505050565b60008151905061541181613ca3565b92915050565b60006020828403121561542d5761542c613c6d565b5b600061543b84828501615402565b91505092915050565b60008190508160005260206000209050919050565b60006020601f8301049050919050565b600082821b905092915050565b6000600883026154a67fffffffffffffffffffffffffffffffffffffffffffffffffffffffffffffffff82615469565b6154b08683615469565b95508019841693508086168417925050509392505050565b60006154e36154de6154d984613de4565b614f83565b613de4565b9050919050565b6000819050919050565b6154fd836154c8565b615511615509826154ea565b848454615476565b825550505050565b600090565b615526615519565b6155318184846154f4565b505050565b5b818110156155555761554a60008261551e565b600181019050615537565b5050565b601f82111561559a5761556b81615444565b61557484615459565b81016020851015615583578190505b61559761558f85615459565b830182615536565b50505b505050565b600082821c905092915050565b60006155bd6000198460080261559f565b1980831691505092915050565b60006155d683836155ac565b9150826002028217905092915050565b6155ef82613d32565b67ffffffffffffffff811115615608576156076144c5565b5b6156128254614a36565b61561d828285615559565b600060209050601f831160018114615650576000841561563e578287015190505b61564885826155ca565b8655506156b0565b601f19841661565e86615444565b60005b8281101561568657848901518255600182019150602085019450602081019050615661565b868310156156a3578489015161569f601f8916826155ac565b8355505b6001600288020188555050505b505050505050565b7f486f706566756c6c792073656e64696e672074686520636f727265637420707260008201527f6963650000000000000000000000000000000000000000000000000000000000602082015250565b6000615714602383613d3d565b915061571f826156b8565b604082019050919050565b6000602082019050818103600083015261574381615707565b9050919050565b600060408201905061575f6000830185613e79565b61576c6020830184614212565b9392505050565b7f4e487b7100000000000000000000000000000000000000000000000000000000600052601260045260246000fd5b7f4e487b7100000000000000000000000000000000000000000000000000000000600052605160045260246000fdfe4d61726b6574706c6163652062616c616e63652061667465722073616c653a2025734d61726b6574706c6163652062616c616e6365206265666f72652073616c653a202573a2646970667358221220a70b149cc79cc038c5b0331e33f1cca84639edac1c0bcbec0c73f69bc88673a464736f6c63430008140033",
  "linkReferences": {},
  "deployedLinkReferences": {}
}